:020000040800F2
:1000000080050020D10100087F2E0008412B000848
:100010007D2E00088D08000807370008000000004A
:10002000000000000000000000000000BD310008DA
:100030008F08000800000000812E0008BF31000872
:10004000EB010008EB010008EB010008EB010008E0
:10005000EB010008EB010008EB010008EB010008D0
:10006000EB010008EB010008EB010008EB010008C0
:10007000EB010008EB010008EB010008EB010008B0
:10008000EB010008EB0100088D070008EB010008F8
:10009000EB010008EB010008EB010008EB01000890
:1000A000EB010008EB010008EB010008EB01000880
:1000B000EB010008EB010008EB010008EB01000870
:1000C000EB010008EB010008EB010008EB01000860
:1000D000EB010008EB010008EB010008EB01000850
:1000E000EB010008EB010008EB010008EB01000840
:1000F000EB010008EB010008EB0100080000000024
:10010000EB010008EB010008EB010008EB0100081F
:10011000EB010008EB010008EB010008EB0100080F
:10012000EB010008EB010008EB010008EB010008FF
:10013000EB010008EB010008EB010008EB010008EF
:10014000EB010008EB010008EB010008EB010008DF
:10015000EB010008EB010008EB010008EB010008CF
:10016000EB010008EB010008EB010008EB010008BF
:10017000EB010008EB010008000000000000000097
:10018000EB010008EB010008EB010008EB0100089F
:10019000EB010008EB010008000000000000000077
:1001A0000000000000000000EB010008EB01000867
:1001B000EB010008EB010008EB010008DFF80CD0B0
:1001C00000F032FA00480047593800088005002046
:1001D0000648804706480047FEE7FEE7FEE7FEE7E1
:1001E000FEE7FEE7FEE7FEE7FEE7FEE75532000822
:1001F000BD010008D2B201E000F8012B491EFBD27C
:1002000070470022F6E710B513460A460446194621
:10021000FFF7F0FF204610BD2DE9FE4F804681EA32
:100220000300C00F0C46009021F0004123F0004570
:10023000B8EB0200A94105D24046214690461C4633
:100240000B46024623F00040104347D0270DC7F36A
:100250000A00C3F30A510290401A019040286BDA59
:10026000C3F3130040F4801B0098924620B1002392
:10027000D2EB030A63EB0B0B01985946C0F1400225
:10028000504600F01CF906460D4650465946019A64
:1002900000F024F910EB08006141002487EA1152B4
:1002A00084EAE7731A4340D0009A62B3019A012AA4
:1002B0004FEA075215DC001B61EB02014FF00042D0
:1002C00002EA0752CDE90042001C41F58011324696
:1002D0002B4600F05BF903B000F045B840462146DC
:1002E000F9E7001B61EB0201001C41F580130018C7
:1002F0005B412018A2F5001747EB030140EAD570D7
:10030000B6196D4111E06D084FEA360645EAC07531
:100310004FEA0752001B61EB0201001C41F58011FE
:1003200049084FEA30000019514132462B4603B0CC
:1003300000F01CB800F01BB9009801224000002317
:10034000D0EB020263EBE073009821464FEAE074C1
:10035000B8EB000061EB0401E9E783F000435BE7E1
:1003600081F0004158E730BCBDE8C08F30BCBDE82B
:10037000C04FFFF7DFBF2DE9FE4F81EA030404F011
:10038000004421F0004100944FF0000B23F00043A3
:1003900050EA01045ED052EA03045BD0C3F30A546E
:1003A000C1F30A552C44A4F2F3340194A0FB025487
:1003B000C1F3130141F48011C3F3130343F4801319
:1003C00001FB024400FB034E840A970A44EA81546D
:1003D00047EA8357A4FB076802958D0A05FB07854A
:1003E0004FEA932C04FB0C542705029D4FEA065854
:1003F00047EA1637B5EB08056EEB070C870E920E31
:1004000047EA811742EA8312A7FB0201B6EB0B0110
:1004100064EB00042B0D43EA0C335E1844EB1C50D4
:10042000DA465146E7FB0201C5F313044FEA0B33EA
:1004300043EA14534FEA0432019C43EA0603A4F151
:100440000C040294009CCDE900B400F09FF803B0C6
:1004500000F003B800200146F9E730BCBDE8C08FCA
:1004600000F0004230F000400AD0C10D01F560718B
:10047000C0F3160042EA0151C20840071143704719
:1004800000200146704701F0004330B421F00041E4
:1004900050EA010206D00A0DA2F56072C1F3130101
:1004A000002A02DC30BC00207047440F44EAC1043B
:1004B000C100E01830BC00EBC25000F021B8202A87
:1004C00004DB203A00FA02F1002070479140C2F1AB
:1004D000200320FA03F3194390407047202A06DBDB
:1004E000CB17203A41FA02F043EAE07306E041FA02
:1004F00002F3D040C2F120029140084319467047F0
:100500000029A8BF7047401C490008BF20F0010027
:10051000704710B4B0FA80FC00FA0CF050EA010405
:1005200004BF10BC704749B1CCF1200421FA04F497
:1005300011FA0CF118BF012121430843A3EB0C0170
:10054000CB1D4FEA00614FEA102042BF002010BCD3
:10055000704700EBC35010440029A4BF10BC704783
:10056000401C490008BF20F0010010BC704710B5C6
:10057000141E73F1000408DA401C41F100019218C6
:100580005B411A4301D120F0010010BD2DE9F04D6F
:1005900092469B4611B1B1FA81F202E0B0FA80F2C4
:1005A00020329046FFF78BFF04460F4640EA0A00D0
:1005B00041EA0B0153465A46084313D0114653EA09
:1005C000010019D0C8F14002504600F03FF805463E
:1005D0000E46504659464246FFF771FF084305D084
:1005E000012004E020463946BDE8F08D0020054397
:1005F00046EAE0762C4337430A986305E40AA0EB09
:1006000008000022FD0A44EA47540A3002D50020BF
:100610000146E9E7010510196941DDE908450019BE
:100620006941BDE8F04DA2E7064C074D06E0E068E1
:1006300040F0010394E8070098471034AC42F6D329
:10064000FFF7C0FD1441000834410008202A04DBF4
:10065000203A21FA02F00021704721FA02F3D0403B
:10066000C2F12002914008431946704780B59FEDC2
:10067000441A9FED443A43F6101C9FED437AF0EE86
:10068000087AB5EEC00AC0F6000CF1EE10FA20EEC2
:10069000011AB0EEC11ABDEEC12AB8EEC22A31EE7F
:1006A000421A21EE031ABDEEC12A12EE102A02F1FF
:1006B00080036FF35F226FF35F230CEB820E00EE7B
:1006C000902A0CEB83039EED013A9EED002AF8EE92
:1006D000600A93ED004A93ED015A31EE601AB1EED3
:1006E000436A73EE421A72EE024A74EE052A36EE3F
:1006F000426A74EE043A75EE445A33EE243A71EECF
:10070000A16A61EEA71A35EE235A62EE872A26EE19
:10071000076A75EEA53A23EE073A72EEE60A25EE71
:10072000075A36EE636A65EEA72A61EE200A31EEBB
:10073000C55A32EE833A21EE066A33EE063A35EEBA
:10074000205A24EE076A22EE077A21EE055A21EE9E
:10075000033A36EE055A33EE473A21EE055A21EEBA
:10076000031A32EE052A34EE011AB1EE423A81ED57
:10077000001AB8BFB0EE432A80ED002A80BD00BF4A
:10078000610B363B00000044DB0F493C014800F0A0
:1007900009BB00006800002070B50446006881684D
:1007A0008268C1F3400112F0010F24D019BB8168A7
:1007B00001F00D01012910D18168104A1140891CF6
:1007C000816021680320086000F062FE05460EE0AB
:1007D00000F05EFE401B022809D9A06D40F0100019
:1007E000A065E06D40F00100E065012070BD20686B
:1007F0008068C007ECD1002070BD0000C0FFFF7F03
:1008000070B504460068816811F0010F28D1816835
:10081000144A114215D18168D5432940491C816091
:1008200000F036FE064616E0816811F0010F03D194
:1008300081682940491C816000F02AFE801B022843
:1008400009D9A06D40F01000A065E06D40F00100F6
:10085000E065012070BD20680168C943C907E3D184
:10086000002070BD3F000080064910B508600648B2
:1008700000F05EF8044800F092FA00EE100AB8EEBC
:10088000400A10BD5000002068000020FEE77047BD
:1008900072B6FEE7F8B500260446009690F85400BC
:1008A0000D4601280BD0012084F854002046FFF7A4
:1008B00073FF0100A06D04D040F010002BE0022077
:1008C000F8BD20F4885040F00200A06520688268DE
:1008D000134B1A4005F080431A4342F000428260F5
:1008E0004FF4912320680EE0009A521C00929A4225
:1008F00009D3A06D20F0020040F01000A06584F83C
:1009000054600120F8BD8268D20FEDD1A06D20F0B7
:10091000020040F00100A06584F854600846F8BD6C
:10092000C0FFFF3F70477047704770477047000037
:100930002DE9F84F00270446009790F85400DFF89F
:10094000D0930D46B846012811D0012684F8546092
:10095000206802F000F960B1A06D40F02000A065B1
:100960005FF0010784F85480384600F0E7B90220B0
:10097000FBE768680C23052812D8022807D0032853
:1009800007D0042807D0052807D0062007E06B60B1
:1009900006E0122003E0182001E04FF48070686048
:1009A000D5E90021206803EA91131844036B01F094
:1009B0001F014FF01F0C0CFA01FCC2F3846223EA02
:1009C0000C038A4013430363206802F0C4F8824694
:1009D000206802F0BCF85AEA000025D1AA6829680C
:1009E0002068B2F1004F20D002F0C1F820684169C0
:1009F00021F00041416120686969C268C2F3C10207
:100A0000520091402A69042A17D000EB82002B681B
:100A1000026EDFF800C303F0F84302EA0C020B4356
:100A20001A4342F0004101667AE0002202F09FF88A
:100A30002068416941F00041DCE7002102F081F8C3
:100A4000400320684FF0000172D002F07AF890FA6B
:100A5000A0F0B0FA80F1286842036ED090FAA0F0BE
:100A6000B0FA80F0814204D100221146206802F0E1
:100A70008DF80121206802F064F8400320684FF0EF
:100A800001015DD002F05DF890FAA0F0B0FA80F1BB
:100A90002868420359D090FAA0F0B0FA80F0814261
:100AA00004D100220121206802F070F802212068A0
:100AB00002F047F8400320684FF0020148D002F0EE
:100AC00040F890FAA0F0B0FA80F12868420344D0D0
:100AD00090FAA0F0B0FA80F0814204D10022022105
:100AE000206802F053F80321206802F02AF840033E
:100AF00020684FF0030133D002F023F890FAA0F001
:100B0000B0FA80F1286842032FD090FAA0F0B0FA32
:100B100080F0814204D100220321206802F036F8DF
:100B20002068816811F0010F22D0ACE000E004E001
:100B300002F007F8C0F384618DE7C0F3846091E7A9
:100B400001F0FFFFC0F38461A2E7C0F38460A6E771
:100B500001F0F7FFC0F38461B7E7C0F38460BBE73F
:100B600001F0EFFFC0F38461CCE7C0F38460D0E70D
:100B70002A7B296850F8B03FC1F3120C23EA0C031A
:100B800002F0180C644A22FA0CF20A401343036084
:100B9000E968494577D1286841031CD090FAA0F153
:100BA000B1FA81F1491C01F01F0109294FEA4031D6
:100BB00032D8002912D000BF90FAA0F1B1FA81F129
:100BC00001F1010101F01F0106FA01F609D100BF90
:100BD000C0F3846109E0C0F38461E3E7C0F384619A
:100BE000EEE790FAA0F1B1FA81F101F1010101F013
:100BF0001F0146EA816102D1C0F3846003E090FAEC
:100C0000A0F0B0FA80F000F1010000F01F0000EB4E
:100C1000400041EA005132E000290ED090FAA0F1E4
:100C2000B1FA81F101F1010101F01F0106FA01F6AB
:100C300006D100BFC0F3846106E0C0F38461F1E730
:100C400090FAA0F1B1FA81F101F1010101F01F0167
:100C500046EA816102D1C0F3846003E090FAA0F01B
:100C6000B0FA80F000F1010000F01F002B4A00EB09
:100C7000400002EB005041EA000141F00071AA6817
:100C8000206801F074FF26482A6802423FF46AAEE9
:100C900024488168244D254B01F0E071AA421AD105
:100CA0000D0218D422689A427FF45CAE826841F447
:100CB000000122F0E0720A4382601D481D4900686D
:100CC000B0FBF1F000EB4000800000E0401E00901F
:100CD0000028FBD146E6184DAA4207D1CD0105D424
:100CE00022689A42F6D141F080710AE06FF0004527
:100CF000EA42EFD14A02EDD422689A42EAD141F4A5
:100D00008001826822F0E0720A4382602AE60000D5
:100D100000007F4000F0FF03FFFF0700000020FEFF
:100D20000000088000030450000052C70000045077
:100D300040000020400D0300000084CB18BCBDE83B
:100D4000E08F000070B5104D01220421284600F00C
:100D50009AFB0E48FFF788FD0D4C0E4884ED000A03
:100D6000FFF782FD84ED010A0B48FFF77DFD84ED5E
:100D7000020A204602F0E8FC2846BDE87040002246
:100D8000042100F080BB0000001000482000F01497
:100D900044000020400020198000501D704700686A
:100DA000006C70472DE9F04104460068066845680C
:100DB000B0070ED5A8070CD5A06DC00603D4A06D52
:100DC00040F40060A0652046FFF7ACFD21680220DA
:100DD0000860700701D5680703D4300724D52807B9
:100DE00022D5A06DC00603D4A06D40F40070A065AC
:100DF000206801F0B4FE88B12068C16889040DD470
:100E0000016809070AD501F0A6FE50B3A06D40F0B5
:100E10001000A065E06D40F00100E0652046FFF79E
:100E200091FF21680C200860B00601D5A80603D404
:100E3000700645D5680643D5A06DC00603D4A06DE5
:100E400040F40050A0652068C16C11F0C00F19D0AB
:100E50005FF0000701F083FE21680246C868C7B949
:100E600012E02068416821F00C014160A06D20F47F
:100E70008070A065A06DC004D0D4A06D40F00100CA
:100E8000A065CBE70127E5E7830113D492B1820483
:100E900010D40A6852060DD580020BD4084601F022
:100EA00056FEE8B3A06D40F01000A065E06D40F084
:100EB0000100E0652046FFF736FD216860200860EC
:100EC00030060BD5280609D5A06D40F48030A0650A
:100ED000204600F03BF9216880200860F0050CD521
:100EE000E8050AD5A06D40F40030A0652046FFF764
:100EF0001CFD21684FF480700860B0050CD5A80572
:100F00000AD5A06D40F48020A0652046FFF70EFDB5
:100F100021684FF400700860F00617D5E80600E07D
:100F200029E013D5606B18B12068C068C0070AD0EB
:100F3000A06D40F48060A065E06D40F00200E065C7
:100F40002046FFF72BFF216810200860700523D58D
:100F5000680521D5A06D40F48040A065E06D40F0AB
:100F60000800E06521684FF4806008602046BDE815
:100F7000F041FFF7D9BC2068416821F06001416071
:100F8000A06D20F48050A065A06DC00592D4A06D26
:100F900040F00100A0658DE7BDE8F081F8B54FF0A5
:100FA000000504002E46009502D0A06D10B107E0A8
:100FB0000120F8BD204600F0CBF8E66584F85460C7
:100FC00020688168C1F3407119B18168574A1140A6
:100FD000816020688168C1F3007179B98168544AE1
:100FE000114041F080518160524853490068B0FB84
:100FF000F1F000E0401E00900028FBD120688168DD
:10100000C1F3007141B9A16D41F01001A165E16D1D
:1010100041F00101E165012501F09DFDA16DC906C9
:1010200000D430B1A06D40F01000A0650125284625
:10103000F8BDA06D20F4807040F00200A06520682B
:10104000806810F0010F0BD13C48806810F0010F50
:1010500006D13B4960688A6822F47C1202438A60A8
:10106000E168606B627E0843A16841EA423108434F
:1010700094F8201040EA0140012904D1A18C314AA2
:1010800002EB41410843A16A29B101F47071E26A9F
:10109000014342EA01002168CA682B4B1A4002430F
:1010A000CA60206801F057FD0646206801F04FFD38
:1010B000304317D1207E94F83010800340EA41007D
:1010C000E16C08432168CA6844F206039A4302436C
:1010D000CA6094F8380001280CD02068016921F01A
:1010E00001010161206901282068016B21F00F01D5
:1010F00011D013E0D4E90F010843D4E911121143D0
:10110000084321680A6940F2FC739A43104340F097
:1011100001000861E6E7E269521E11430163A06D18
:1011200020F0020040F00100A06580E7C0FFFF5FF3
:10113000C0FFFF7F40000020400D0300000004506E
:10114000000304500000FEFF07C0F0FF70470000DE
:1011500010B586B0044614216846FFF752F81549C9
:101160002068884223D11448C16C41F40051C16405
:10117000C16C01F400510591C16C41F00101C164E1
:10118000C06C694600F001000590072000900B201C
:101190000190002002904FF0904000F07FF8002274
:1011A0001146122000F0D8F9122000F0C7F906B05D
:1011B00010BD0000000004500010024010B50446AD
:1011C000006801F0C8FC10B10221084610BD94F877
:1011D000540001280CD0012084F854002046FFF769
:1011E0000FFB01004FF0000004D084F85400ECE73E
:1011F000022010BDA26D40F601639A4342F4807252
:10120000A265A26DD20404D5E26D22F00602E26569
:1012100000E0E06523681C221A6084F8540020680E
:10122000426822F01C024260606908282068426817
:1012300002D042F0040201E042F008024260606B1A
:1012400020B92068426842F0100242602068C268FB
:10125000920119D5A26D22F4005242F48052A26587
:101260006269082A426807D022F040024260206882
:10127000426842F0200206E022F02002426020682C
:10128000426842F04002426020688268024B1A4085
:10129000121D826099E70000C0FFFF7F2DE9FC4F1F
:1012A000DFF8B4A1002301250AF1040B03244FF059
:1012B0000F0C0BF1040EC7E005FA03F632406FD0B5
:1012C0004F68012F05D0022F03D0112F01D0122F0C
:1012D00017D1D0F808905F0004FA07F829EA080946
:1012E0000097D1F80C8008FA07F848EA0908C0F816
:1012F00008804768B7430E79C6F300169E403E4308
:101300004660C6684FEA430804FA08F7BE430197EF
:101310008F6807FA08F73743C7604E68022E01D07E
:10132000122E13D1DE0800EB86060096366A5F07A0
:10133000FF0E0CFA07F926EA0906D1F8109009FA0F
:1013400007F949EA0609009EC6F820900668019F41
:10135000BE430F7907F0030707FA08F73743076022
:101360004E68F6006FD53D4E376E47F00107376681
:10137000366E23F0030706F001060096384E3E4411
:10138000B146B6689F074FEA17780CFA08F7BE43D4
:10139000B0F1904F05D0334FB84204D1012721E07E
:1013A00051E000271EE0304FB84201D1022719E07A
:1013B0002E4FB84201D1032714E02D4FB84201D17E
:1013C00004270FE02B4FB84201D105270AE02A4F2E
:1013D000B84201D1062705E0284FB84201D10727BE
:1013E00000E0082707FA08F73743C9F80870DAF869
:1013F00000605746D1F8048096435FEAC83800D5AC
:1014000016433E60DBF800605F46D1F804809643E7
:101410005FEA883800D516433E60DEF80060774604
:10142000D1F8048096435FEAC82800D516433E6091
:10143000094F0C373E68D1F8048096435FEA88284C
:1014400000D516433E605B1C0A6832FA03F67FF44F
:1014500033AF00F015B80000000401400010024056
:10146000000001400004004800080048000C00484B
:10147000001000480014004800180048001C0048F4
:101480001CBCBDE8E08F0AB1816170478162704782
:1014900001488068704700003400002002488168DD
:1014A00002781144816070473400002010B5002498
:1014B000032000F071F8002000F008F808B10124C2
:1014C00001E000F025F8204610BD000070B50E4E7A
:1014D00005460024307898B14FF47A71B1FBF0F0F2
:1014E0000A490968B1FBF0F000F05EFF40B9102D29
:1014F00006D200222946501E00F02EF8756000E04A
:101500000124204670BD000034000020400000206F
:10151000094808B5016E41F001010166016E01F054
:1015200001010091816D41F080518165806D00F075
:101530008050009008BD000000100240002809DB28
:1015400000F01F02012191404009800000F1E020DD
:10155000C0F8001170470000F0B40E4B1B680C4639
:10156000C3F30223C3F10705042D00D90425191D77
:10157000072901D2002300E0DB1E012606FA05F14F
:10158000491E214099409E40761E16403143F0BCD2
:1015900002F0BAB80CED00E0064900F00702086856
:1015A0004FF6FF03184040EA0220034A1043086048
:1015B000704700000CED00E00000FA052B492C4BB1
:1015C0000A6832214A432B4940B1B0F5007F0868D0
:1015D00029D020F4C06040F480602CE00868C0F39B
:1015E0004120022804D051F8800F20F4807022E0BE
:1015F000D1F8800020F48070C1F88000086820F4E1
:10160000C06040F400700860B2FBF3F0401C00E0E2
:10161000401E4A69520501D50028F9D148694005A4
:101620000AD503207047C0F34120022806D051F8A4
:10163000800F40F48070086000207047D1F880006F
:1016400040F48070C1F88000086820F4C06040F465
:1016500000700860B2FBF3F0401C00E0401E4A69D5
:101660005205DBD50028F9D1D8E700004000002062
:1016700040420F000070004008480168C1F341215A
:10168000022906D0D0F88000C00505D54FF40070BF
:1016900070474FF480607047002070470070004032
:1016A0002DE9F84F0446002700883E46010504F165
:1016B0002008FE4D1ED5E06E40280AD003DC68B13C
:1016C000202804D10FE0602821D080281FD00127D6
:1016D0000FE0E86840F48030E86018E00021201D49
:1016E00001F0D0FB03E00021404601F05FFC070061
:1016F0000DD03E462088C0042BD5206FB0F5007F6A
:1017000016D00DDCC8B1B0F5807F0FD11AE0D5F846
:101710009C00E16E20F0E0000843C5F89C00E9E77A
:10172000B0F5407F13D0B0F5806F10D001270FE0E7
:10173000E86840F48030E86009E00021201D01F0F5
:10174000A1FB03E00021404601F030FC0746F7B161
:101750003E46206880033AD5A86D4FF00008C000CF
:1017600009D4A86D40F08050A865A86D4FF001081D
:1017700000F080500090DFF838A3DAF8001041F450
:101780008071CAF80010FFF783FE814610E0D5F89B
:101790009C00216F20F4E0600843C5F89C00D8E766
:1017A000FFF776FEA0EB0900022801D9032705E028
:1017B000DAF80000C005F3D5002F7CD04FEA070609
:1017C000B8F1000F03D0A86D20F08050A8652078F4
:1017D000C00707D0D5F88800E16B20F0030008436C
:1017E000C5F888002078800707D5D5F88800216CD7
:1017F00020F00C000843C5F888002078400707D582
:10180000D5F88800616C20F030000843C5F88800E6
:101810002078000707D5D5F88800A16C20F0C0001B
:101820000843C5F888002078C00607D5D5F8880099
:10183000E16C20F440700843C5F8880020788006E9
:1018400007D5D5F88800216D20F440600843C5F81D
:1018500088002088800507D5D5F88800616E20F4BF
:1018600040200843C5F888002088400507D5D5F8F2
:101870008800A16E20F440100843C5F88800207845
:10188000400607D5D5F88800616D20F44050084324
:10189000C5F888002078000607D5D5F88800A16D26
:1018A00020F440400843C5F888002088C00509D5C9
:1018B000D5F8880000E027E0E16D20F440300843CF
:1018C000C5F888002068C00207D5D5F89C00216EB5
:1018D00020F003000843C5F89C0020884FF0006703
:1018E00080044FF0806850D5D5F88800616F20F0F3
:1018F00040600843C5F88800606FB8423DD1E86891
:1019000040F48010E86040E0D5F8900010F440709A
:1019100015D0D4F89010814211D0D5F89000D5F8A8
:10192000901020F4407041F48031C5F89010D5F843
:10193000901021F48031C5F89010C5F89000C007D0
:1019400011D0FFF7A5FD074641F2883907E000BF37
:10195000FFF79EFDC11B494501D9032630E7D5F8A5
:1019600090008007F4D5D5F89000D4F8901020F4BA
:1019700040700843C5F8900022E7404505D1012199
:10198000201D01F07FFA00B10646206800032DD526
:10199000A06F4FF480418842D5F89C0004D140F4F8
:1019A0008040C5F89C000BE020F48040C5F89C0006
:1019B000D5F88800A26F20F040601043C5F8880079
:1019C000A06FB84203D1E86840F4801004E0884278
:1019D00004D1E86840F48030E86007E0404505D174
:1019E0000121201D01F04EFA00B106462068400397
:1019F00017D5D5F88800E16F20F040600843C5F89E
:101A00008800E06FB84204D1E86840F48010E860D4
:101A100007E0404505D10121201D01F033FA00B156
:101A200006462088400413D5D5F88800D4F88010E5
:101A300020F040500843C5F88800D4F88000B0F189
:101A4000805F05D10221201D01F01CFA00B106467D
:101A50002068C00308D5D5F89C00D4F8841020F085
:101A600004000843C5F89C002068800208D5D5F81A
:101A70009C00D4F8881020F018000843C5F89C009A
:101A80002068C00110D5D5F89C0054F88C1F20F4B4
:101A900040100843C5F89C002068B0F5001F03D132
:101AA000E86840F48010E860304603E0001002402F
:101AB0000070004000F000B818BCBDE8E08F0000E6
:101AC0002DE9F0470E4605004FF000077ED0DFF805
:101AD0005C81D8F8000000F00F00B0420CD2D8F8BA
:101AE000001021F00F013143C8F80010D8F80000B1
:101AF00000F00F00B04271D128784D4CC0074BD098
:101B00006868DFF8309103281ED002282ED0002804
:101B100020682ED04005002860DA00F093F8484590
:101B200006D9A06820F0F00040F08000A060802777
:101B3000A068696820F003000843A060FFF7A8FCD4
:101B4000814641F2883A20E02068800146D501F0C4
:101B5000C1FA4845ECD9A06810F0F00FE1D0287820
:101B60008007E5D5A8680028DBD0E1E7206880037E
:101B7000D1E78007CFE700BFFFF78AFCA0EB0901A0
:101B8000514502D90320BDE8F087A068696800F0DC
:101B90000C00B0EB810FEFD12878800705D5A06845
:101BA000A96820F0F000084304E0802F03D1A0686A
:101BB00020F0F000A060D8F80010404601F00F01BE
:101BC000B1420DD9016821F00F0100E006E0314378
:101BD0000160006800F00F00B04201D00120D2E7A0
:101BE0002878400705D5A068E96820F4E06008433C
:101BF000A0602878000706D5A068296920F4605005
:101C000040EAC100A06000F01DF8A1680A4AC1F3D3
:101C10000311515C01F01F01C840084908600848E1
:101C20000068BDE8F047FFF751BC0000002002400B
:101C30000010024000B4C404D03800084000002066
:101C40003800002070B52549002318468A68CC6802
:101C500012F00C0204F00306214C4FEA640509D08F
:101C60000C2A05D0042A32D0082A00D1284670BD9B
:101C7000012E10D10B681B0704D4D1F89430C3F3A4
:101C8000032302E00B68C3F30313164E56F8233008
:101C9000DAB10C2AEBD1C86800F00300022818D092
:101CA000032818D01846CA68CB68C2F30312C3F3DE
:101CB00006234343521CB3FBF2F2C868C0F34160F1
:101CC000401C4000B2FBF0F070BD184670BD2046CD
:101CD00070BD2046E7E72846E5E700000010024017
:101CE0000024F400E03800082DE9F84304006FD028
:101CF000FA4DA86800F00C06E86800F003072078A9
:101D0000C00664D576B10C2E01D1012F0AD0A0698E
:101D1000002828687AD040F001002860FFF7B8FB5F
:101D200080465DE02868800702D5A0690028DED0E3
:101D3000216A2868000703D5286800F0F00004E055
:101D4000D5F89400F02202EA1010814216D9084614
:101D500001F0FAF900283BD1286840F0080028601B
:101D60002868216A20F0F000084328606868E1696B
:101D700020F47F4040EA0120686016E0286840F0C7
:101D8000080028602868216A20F0F00008432860D5
:101D90006868E16920F47F4040EA0120686026B964
:101DA000206A01F0D1F90028D5D1FFF74BFFA968CF
:101DB000CB4AC1F30311515C01F01F01C840C9496E
:101DC0000860C9480068FFF781FB00287ED12EE03B
:101DD000CAE000BFFFF75CFBA0EB0800022876D842
:101DE00028688007F6D5286840F008002860286831
:101DF000216A20F0F000084328606868E16920F457
:101E00007F4040EA0120686011E0FFE720F0010018
:101E10002860FFF73DFB804606E000BFFFF738FB78
:101E2000A0EB08000228DAD828688007F6D42078CA
:101E3000C00740D0082E18D00C2E01D1032F14D08B
:101E40006068B0F5803F17D0B0F5A02F286817D094
:101E500020F480302860286820F4802028606068A2
:101E6000E0B1FFF715FB804614E02868800322D517
:101E70006068002878D01EE0286840F48030EDE7E4
:101E800040F480202860F7E7FFF702FBA0EB080092
:101E90006428A4D828688003F6D50CE0FFF7F8FA88
:101EA000804605E0FFF7F4FAA0EB0800642896D816
:101EB00028688003F6D4207880073BD5042E11D003
:101EC0000C2E01D1022F0DD0E06801E0BAE1FFE055
:101ED000002828681ED040F480702860FFF7D8FAE8
:101EE00007460CE0286840050CD5E0680028C1D002
:101EF00008E000BFFFF7CCFAC01B022893D828687F
:101F00004005F7D56868217C20F0FE4040EA01607A
:101F100068600FE020F480702860FFF7B9FA074688
:101F200005E000BFFFF7B4FAC01B0228B1D828684B
:101F30004005F7D42078000729D560690028D5F836
:101F4000940012D040F00100C5F89400FFF7A0FA09
:101F5000074604E0FFF79CFAC01B022899D8D5F881
:101F600094008007F6D512E02BE120F00100C5F8BF
:101F70009400FFF78DFA074605E000BFFFF788FAE7
:101F8000C01B022885D8D5F894008007F6D42078A5
:101F9000400766D5A86D0027C00008D4A86D40F0A2
:101FA0008050A865A86D012700F0805000904F4830
:101FB0000168C90512D40168814641F4807101604D
:101FC000FFF766FA804605E0FFF762FAA0EB08002B
:101FD00002287DD8D9F80000C005F5D5A0680128F1
:101FE00016D00528D5F8900017D020F00100C5F8CC
:101FF0009000D5F8900020F0040000BFC5F89000D4
:10200000A06841F28839C0B1FFF742FA80460FE07C
:10201000D5F8900040F00100F0E740F00400C5F86A
:102020009000F5E7FFF734FAA0EB080149454FD8D7
:10203000D5F890008007F5D50EE0FFF729FA804625
:1020400006E000BFFFF724FAA0EB080149453FD89E
:10205000D5F890008007F5D41FB1A86D20F080500E
:10206000A8652078800628D5606A0028D5F89800F1
:1020700012D040F00100C5F89800FFF709FA0746B2
:1020800005E000BFFFF704FAC01B022820D8D5F8EE
:1020900098008007F6D510E020F00100C5F8980000
:1020A000FFF7F6F9074604E0FFF7F2F9C01B022834
:1020B0000ED8D5F898008007F6D4A06AF0B30228AD
:1020C00016D00C2E7DD0286820F08070286000E0AB
:1020D000B7E0286810F0205F74D0A4E00010024040
:1020E000D038000840000020380000200070004078
:1020F000E868E26A00F00301914228D1216B00F008
:10210000F00209011039914221D1626B00F4FE41C5
:10211000B1EB022F1BD194F8382000F07841B1EBDD
:10212000C26F14D1A18F00F4C00249084905A1F57E
:10213000001191420BD194F8401000E06EE0490884
:10214000490600F0C060A1F1007181424FD00C2E11
:102150007FD0286840017CD42868C00079D42868E2
:1021600020F080702860FFF793F9064605E000BF75
:10217000FFF78EF9801B022863D828688001F7D406
:10218000F4E90B016FF00F0202EB01110843218A01
:102190005204490802EB4151A26841EA0221084376
:1021A000217D4FF07E42490802EB41610843217BCB
:1021B00040EAC160E968284A11400843E86028689D
:1021C00001E046E02BE040F080702860E86840F0D5
:1021D0008070E860FFF75CF9044604E0FFF758F907
:1021E000001B02282DD828688001F7D52FE0286829
:1021F00080012CD4286840F080702860E86840F0A6
:102200008070E860FFF744F9044604E0FFF740F906
:10221000001B022815D828688001F7D517E0E86868
:1022200020F00300E860E8680C490840E860FFF728
:102230002FF9044608E000BFFFF72AF9001B022827
:1022400002D90320BDE8F88328688001F4D4002077
:10225000F8E70120F6E700000C809D01FFFFEEFE8D
:1022600070B5040009D0606A002540B12561656140
:10227000A56294F85D0040B10CE0012070BD60687B
:10228000B0F5827FF4D0E561F2E784F85C50204637
:1022900000F056F8022084F85D002068016821F003
:1022A00040010160E1684FF4E062914201D90020F1
:1022B00001E04FF48050B1F5706F02D0914200D030
:1022C000A562A188228901F4827102F404421143BB
:1022D000227C02F002021143227D02F0010211432E
:1022E000228B02F400721143227F02F03802114364
:1022F00094F8202002F080021143228D02F4005253
:10230000114322681160A169042202EA114194F884
:10231000242000F4805002F01002114394F834207D
:1023200002F008021143A28902F4706211430143D2
:10233000206841602566012084F85D00002070BDA2
:1023400010B586B0044614216846FDF75AFF1349BC
:10235000206888421FD11248816D41F48041816517
:10236000816D01F480410591C16C41F00201C164AD
:10237000C06C694600F0020005904FF46040009088
:102380000220019000200290032003900520049079
:102390000448FEF783FF06B010BD0000003800407F
:1023A000001002400004004810B5401EB0F1807FCC
:1023B00001D3012010BD4FF0E02460610F216017B0
:1023C00001F0A2F90020A06107202061002010BDCB
:1023D00030B590F83C20012A3AD0012280F83C2008
:1023E000CA688B6822F440721A434B6822F48062F8
:1023F0001A430B6822F400621A430B6922F48052DC
:102400001A434B6922F400521A438B6A22F4804229
:102410001A430B8B22F4702242EA03420D4D0368EB
:102420000024AB4202D00C4DAB420CD18D8C22F477
:10243000700242EA0552CD6922F080722A43096A8D
:1024400022F000720A435A6480F83C40002030BDFC
:10245000022030BD002C014000340140F0B590F85E
:102460003C20012A39D0012480F83C40022280F827
:102470003D20026853689568194E1A4FB24201D048
:10248000BA4204D123F4700C4B6843EA0C0323F0E6
:10249000700C0B6843EA0C0353600268B24210D020
:1024A000B2F1804F0DD0104B9A420AD00F4B9A4296
:1024B00007D00F4B9A4204D0BA4202D00D4B9A4239
:1024C00004D1896825F080031943916080F83D406C
:1024D000002180F83C100846F0BD0220F0BD00004D
:1024E000002C01400034014000040040000800407E
:1024F000000C00400040014010B50446022249B1E2
:1025000004290ED0082913D094F84700012816D0CA
:10251000012010BD94F844000128F9D184F844202A
:102520000FE094F845000128F2D184F8452008E036
:1025300094F846000128EBD184F8462001E084F8A5
:1025400047200422206800F014FF2068416C41F409
:102550000041416411492068884211D0B0F1804F98
:102560000ED00F4988420BD00E49884208D00E4940
:10257000884205D00D49884202D00D49884207D1D2
:1025800081680C4A1140062906D0B1F5803F03D07E
:10259000016841F001010160002010BD002C0140E4
:1025A0000004004000080040000C004000340140DE
:1025B000004001400700010010B5040003D094F86A
:1025C0003D0010B107E0012010BD002084F83C0060
:1025D000204600F023F8022084F83D00211D2068E9
:1025E00000F05AFE012084F8480084F83E0084F888
:1025F0003F0084F8400084F8410084F8420084F8E9
:10260000430084F8440084F8450084F8460084F8C8
:10261000470084F83D00002010BD000008B50068A8
:102620000649884208D10648016E41F400610166FE
:10263000006E00F40060009008BD0000002C014016
:102640000010024090F83D10012901D00120704790
:10265000022180F83D1000681149884211D0B0F184
:10266000804F0ED00F4988420BD00F49884208D0C6
:102670000E49884205D00E49884202D00D49884251
:1026800007D181680C4A1140062906D0B1F5803F78
:1026900003D0016841F00101016000207047000093
:1026A000002C01400004004000080040000C0040E5
:1026B00000340140004001400700010070B50446AD
:1026C00090F83C00012817D0012584F83C500220E6
:1026D00084F83D00226890682E4B184020F47F401B
:1026E00090600868502830D00DDC20284DD005DCE3
:1026F00098B310283BD148E0022070BD302844D068
:10270000402834D139E0602828D0702806D0B0F5B0
:10271000805F2CD0B0F5005F29D10AE0CB68D1E909
:102720000121206800F032FE2068816841F07701C5
:1027300009E0CB68D1E90121206800F027FE20687C
:10274000816841F48041816011E0CA68496820686D
:1027500000F0B6FF5021206807E016E0CA6849681B
:10276000206800F0BEFF6021206800F019FE84F8A8
:102770003D50002084F83C0070BDCA68496820685C
:1027800000F09EFF40212068EFE7226801461046D6
:10279000EBE7000088FFFEFF10B586B00446142169
:1027A0006846FDF72EFD0E492068884216D10D4877
:1027B000C16C41F01001C164C06C694600F01000AA
:1027C00005904FF47C500090022001900020029070
:1027D0000390012004900448FEF760FD06B010BD90
:1027E000002C0140001002400010004810B50446C3
:1027F00090F83C0001280BD0012084F83C000C2A02
:1028000019D007DC5AB1042A0DD0082A1ED10EE0D7
:10281000022010BD102A12D0142A17D113E020680C
:1028200000F0C6FD12E0206800F010FE0EE0206807
:1028300000F054FE0AE0206800F098FE06E02068F0
:1028400000F0CEFE02E0206800F002FF002084F8D5
:102850003C0010BD10B5040003D094F83D0010B149
:1028600007E0012010BD002084F83C00204600F065
:1028700022F8022084F83D00211D206800F00CFDA4
:10288000012084F8480084F83E0084F83F0084F872
:10289000400084F8410084F8420084F8430084F842
:1028A000440084F8450084F8460084F8470084F822
:1028B0003D00002010BD704770B5044690F83C0004
:1028C0000D4601280BD0012084F83C000C2A45D08D
:1028D00007DC5AB1042A1BD0082A78D12CE0022048
:1028E00070BD102A4ED0142A71D15DE0206800F02E
:1028F0005FFD2068816941F008018161206881697C
:1029000021F004018161206881692A69114311E085
:10291000206800F09BFD2068816941F400618161BD
:102920002068816921F480618161206881692A6958
:1029300041EA022181614AE0206800F0CFFD206871
:10294000C16941F00801C1612068C16921F0040139
:10295000C1612068C1692A69114311E0206800F053
:1029600005FE2068C16941F40061C1612068C16948
:1029700021F48061C1612068C1692A6941EA0221AC
:10298000C16124E0206800F02BFE2068416D41F019
:10299000080141652068416D21F00401416520680E
:1029A000416D2A69114311E0206800F051FE206852
:1029B000416D41F4006141652068416D21F4806101
:1029C00041652068416D2A6941EA02214165002084
:1029D00084F83C0070BD10B5040003D094F83D00AD
:1029E00010B107E0012010BD002084F83C00204613
:1029F00000F022F8022084F83D00211D206800F03C
:102A00004BFC012084F8480084F83E0084F83F0025
:102A100084F8400084F8410084F8420084F84300C0
:102A200084F8440084F8450084F8460084F84700A0
:102A300084F83D00002010BD7047000030B504460A
:102A4000022269B1042912D0082917D00C291CD000
:102A5000102921D094F84300012824D0012030BD52
:102A600094F83E000128F9D184F83E201DE094F846
:102A70003F000128F2D184F83F2016E094F840008E
:102A80000128EBD184F840200FE094F841000128A0
:102A9000E4D184F8412008E094F842000128DDD117
:102AA00084F8422001E084F843200122206800F0ED
:102AB00053FC1A4A20681A4B1A49904209D098428E
:102AC00007D0884205D0184DA84202D0174DA84221
:102AD00003D1456C45F400454564206890420FD011
:102AE000B0F1804F0CD0124A904209D0114A904266
:102AF00006D0114A904203D0984201D0884207D1B3
:102B000081680E4A1140062906D0B1F5803F03D0F6
:102B1000016841F001010160002030BD002C01403E
:102B200000340140004001400044014000480140A1
:102B30000004004000080040000C004007000100B5
:102B4000FEE700EB8100006E00F0F84070478068FF
:102B5000C0F3C00070478068C0F380007047C06851
:102B600010F4406F01D0002070470120704704230B
:102B700003EAD15310B518444369C1F30451072443
:102B80008C40A3438A401343436110BD00EB810096
:102B9000016E21F0004111430166704730B587B0E6
:102BA00018216846FDF72DFB2648254900240160C1
:102BB0004FF48021C0E90114042501214561C0E9D9
:102BC0000341047644760321C16180F820404FF42C
:102BD000C86181622902C16280F83040446380F894
:102BE0003840FEF7DBF908B1FDF752FE16480090B9
:102BF00006200190022002907F200594CDE9030574
:102C000069461048FDF794FE08B1FDF741FE0F48F4
:102C100000900C20019069460A48FDF789FE08B132
:102C2000FDF736FE0A4800901220019069460548DB
:102C3000FDF77EFE002801D0FDF72AFE07B030BD6B
:102C400000000450680000202000F014400020190B
:102C50008000501D2DE9F04186B014216846FDF733
:102C6000D0FA2648C16C41F01001C164C16C01F07A
:102C700010010591C16C41F00101C164C16C01F00A
:102C800001010591C16C41F04001C164C16C01F0CA
:102C900040010591C16C41F00201C164C06C184F44
:102CA00000F002000590002204213846FEF7EBFBFD
:102CB0000122DFF85080160331464046FEF7E3FB61
:102CC0000420009001250024CDE9015469463846CE
:102CD0000394FEF7E3FA0220CDE9000469460A48AE
:102CE0000294FEF7DBFA0096CDE9015469464046AE
:102CF0000394FEF7D3FA06B0BDE8F081001002405D
:102D0000001000480004004800180048124810B5A0
:102D1000104901604FF48271416000214FF4E0627C
:102D2000C0E902120122C0E90412520282610822A3
:102D3000C0E9072107224162C0E90A120163416329
:102D4000FFF78EFA002803D0BDE81040FDF7A0BDC4
:102D500010BD000000380040D000002010B59AB02F
:102D600000241794189415941694129413941C210B
:102D700068461494FDF745FA2C2107A8FDF741FA9F
:102D80003D483C490160012141602021816041F6BC
:102D90004C51C0E9031444618461FFF70DFC08B194
:102DA000FDF776FD4FF48050159015A93248FFF7D6
:102DB00085FC08B1FDF76CFD2F48FFF70CFE08B14C
:102DC000FDF766FD2C48FFF745FD08B1FDF760FDF6
:102DD0007020CDE9120412A927481494FFF73EFB96
:102DE00008B1FDF755FD6020CDE90004029403947D
:102DF00004940594002269461F480694FFF75CFD81
:102E000008B1FDF745FD042269461B48FFF754FD54
:102E100008B1FDF73DFD082269461748FFF74CFD54
:102E200008B1FDF735FD302000904FF4E1500190DE
:102E30000C2269461048FFF7D9FC08B1FDF728FDC0
:102E40000794089409944FF400500A94CDE90B407C
:102E50000003CDE90E400D94109407A90648119483
:102E6000FFF7B6FA08B1FDF713FD0348FFF794FC2E
:102E70001AB010BD002C014034010020FEE7FEE72F
:102E8000704700002DE9F041434C05468846E06854
:102E900000268107286806D0E16801F0030181421D
:102EA0000FD170B11AE0012804D0022805D0032800
:102EB00007D108E02168890701E021684905002958
:102EC00007DB012664E02168890302D421684903F5
:102ED000F5E7E16821F003010143E160206820F09B
:102EE00080602060FEF7D4FA074604E0FEF7D0FACF
:102EF000C01B022843D820680001F7D46FF00F00F0
:102F0000B8F1000F1BD0B8F1010F24D0297D49087A
:102F1000420502EB4161AA6841EA02216A6800EBBE
:102F20000210014320691D4A1040014321612068BD
:102F300040F080602060FEF7ABFA074621E0A96808
:102F40002A7B090241EAC2616A6800EB0210014370
:102F50002069134AE8E7298A124A490802EB4151DD
:102F6000AA6841EA02216A6800EB02100143206965
:102F70000D4AD9E7FEF78CFAC01B022801D90326B7
:102F800006E020680001F5D52069A96908432061A1
:102F90003046BDE8F0810000001002400F80FFF9CC
:102FA0000F80FF070000E0FF0F809FFF2DE9F04139
:102FB000434C05468846E06800268107286806D00D
:102FC000E16801F0030181420FD170B11AE00128DC
:102FD00004D0022805D0032807D108E0216889071A
:102FE00001E021684905002907DB012664E021682A
:102FF000890302D421684903F5E7E16821F0030160
:103000000143E160206820F080502060FEF740FA24
:10301000074604E0FEF73CFAC01B022843D82068AC
:103020008000F7D46FF00F00B8F1000F1BD0B8F19B
:10303000010F24D0297D4908420502EB4161AA68AD
:1030400041EA02216A6800EB0210014360691D4AEF
:10305000104001436161206840F080502060FEF71D
:1030600017FA074621E0A9682A7B090241EAC261F2
:103070006A6800EB021001436069134AE8E7298A95
:10308000124A490802EB4151AA6841EA02216A68E2
:1030900000EB0210014360690D4AD9E7FEF7F8F929
:1030A000C01B022801D9032606E020688000F5D560
:1030B0006069A969084360613046BDE8F08100009D
:1030C000001002400F80FFF90F80FF070000E0FFB3
:1030D0000F809FFF18480021C26802F00302012AF6
:1030E0000DD10168090704D4D0F89410C1F303216D
:1030F00002E00168C1F30311104A52F82110C268BE
:1031000002F00302022A02D0032A03D101E00C4993
:1031100000E00C49C268C368C2F30312C3F306237C
:103120004B43521CB3FBF2F1C068C0F34160401C3A
:103130004000B1FBF0F0704700100240E03800089A
:103140000024F40000127A00F8B51A4D0646002457
:10315000A86DC00002D5FEF78FFA0DE0A86D40F013
:103160008050A865A86D00F080500090FEF784FAAA
:10317000A96D21F08051A965B0F5007F03D0802EA4
:1031800006D3022407E0802E05D9A02EF9D801E04D
:10319000702E00D101240848016821F00F0121435D
:1031A0000160006800F00F00A04201D00120F8BDCE
:1031B0000020F8BD00100240002002407047FEF7DA
:1031C0006DB910B5BCB0442125A8FDF71AF814213B
:1031D00036A8FDF716F894216846FDF712F800208E
:1031E000FEF7ECF908B172B6FEE710202590002436
:1031F0006020CDE92C4001212B910220CDE92F0147
:1032000031913C21CDE932103490359025A8FEF75C
:103210006BFD08B172B6FEE70F2036900320CDE9B2
:1032200037043994052136A83A94FEF749FC08B1D1
:1032300072B6FEE74FF4804000904FF0405020906F
:103240006846FEF72DFA002801D072B6FEE73CB0C2
:1032500010BD00000D48016841F4700101600C4888
:10326000016841F001010160002181600268094BA1
:103270001A4002608214C260026822F48022026056
:1032800081610249C00380390860704788ED00E021
:1032900000100240FFFFF6EA2DE9F0470268264BD6
:1032A000264D274E274F284C4FF0804A984209D090
:1032B000504507D0A84205D0B04203D0B84201D053
:1032C000A04204D122F0700C4A6842EA0C02DFF8F6
:1032D0007CC0DFF87C80DFF87C9098420FD05045AE
:1032E0000DD0A8420BD0B04209D0B84207D0A042BE
:1032F00005D0604503D0404501D0484503D122F4B4
:103300004075CA682A434D6922F080022A43026050
:103310008A68C2620A688262984207D0A04205D0D9
:10332000604503D0404501D0484501D1096901639A
:1033300001214161BDE8F087002C014000040040FC
:1033400000080040000C00400034014000400140F3
:10335000004401400048014010B501F01F03012165
:10336000046A99408C430462016A9A4011430162E5
:1033700010BD10B501F01F030421046A99408C436D
:103380000462016A9A401143016210BD10B584685D
:1033900042EA032224F47F440A432243826010BDA0
:1033A000826822F070020A4342F007018160704790
:1033B0002DE9F043026A22F001020262056A4368C5
:1033C00082691C4C25F0020522400C6822F00302A1
:1033D00014438A68194E2A43174D194FDFF864C009
:1033E000DFF86490A84207D0B04205D0B84203D0BD
:1033F000604501D0484506D122F00808CA6842EA73
:10340000080222F00402A84207D0B04205D0B84218
:1034100003D0604501D0484505D14D6923F4407380
:103420001D438B692B434360846149684163026299
:10343000BDE8F0838FFFFEFF002C01400034014007
:10344000004001400044014000480140F0B5026ADC
:1034500022F010020262056A42688369194C1B4E11
:1034600023400C6823F4407343EA042425F020032E
:103470008D6843EA0513144DA84201D0B04206D12D
:10348000CF6823F0800343EA071323F04003A842E8
:103490000AD0B04208D00E4DA84205D00D4DA8422A
:1034A00002D00D4DA84207D14D6922F4406242EA94
:1034B00085028D6942EA85024260846149688163C0
:1034C0000362F0BDFF8FFFFE002C0140003401407D
:1034D000004001400044014000480140F0B5026A4C
:1034E00022F480720262056A4368C269194C1B4E5D
:1034F00022400C6822F00302144325F400728D6808
:1035000042EA0522144DA84201D0B04206D1CF684C
:1035100022F4006242EA072222F48062A8420AD022
:10352000B04208D00E4DA84205D00E4DA84202D0A0
:103530000D4DA84207D14D6923F4405343EA0513CA
:103540008D6943EA05134360C4614968C16302623F
:10355000F0BD00008FFFFEFF002C01400034014051
:1035600000400140004401400048014030B5026A7B
:1035700022F480520262046A4268C369124D24F444
:1035800000542B400D6823F4407343EA05238D68F3
:1035900044EA05340D4DA8420BD00D4DA84208D089
:1035A0000C4DA84205D00C4DA84202D00B4DA842AC
:1035B00004D14D6922F4804242EA85124260C3611F
:1035C00049680164046230BDFF8FFFFE002C01409A
:1035D00000340140004001400044014000480140E7
:1035E00030B5026A22F480320262046A4268436D96
:1035F000114D2B400D681D4324F400330C8943EA20
:1036000004430E4CA0420BD00D4CA04208D00D4CF0
:10361000A04205D00C4CA04202D00C4CA04204D1D8
:103620004C6922F4803242EA0422426045654968CE
:103630008165036230BD00008FFFFEFF002C01405A
:103640000034014000400140004401400048014076
:1036500030B5026A22F480120262046A4268436D45
:10366000114D24F400142B400D6843EA05230D8905
:1036700044EA05540D4DA8420BD00D4DA84208D088
:103680000C4DA84205D00C4DA84202D00B4DA842CB
:1036900004D14D6922F4802242EA852242604365CA
:1036A0004968C165046230BDFF8FFFFE002C0140F8
:1036B0000034014000400140004401400048014006
:1036C00010B5036A046A24F001040462846924F0DA
:1036D000F00444EA021423F00A020A4384610262FD
:1036E00010BD10B5036A23F0100303628369046AF6
:1036F00023F4704343EA023224F0A00343EA0111A9
:103700008261016210BDFEE70907090E002804DB93
:1037100000F1E02080F80014704700F00F0000F185
:10372000E02080F8141D704702E008C8121F08C18D
:10373000002AFAD170477047002001E001C1121F32
:10374000002AFBD17047000070B5364C2068FCF7AA
:1037500087FE9FED351B53EC112BFCF7FEFD9FED13
:10376000341B53EC112BFCF706FEFCF78CFE324D9C
:1037700028606068FCF774FE9FED301B53EC112B42
:10378000FCF7EBFD9FED2F1B53EC112BFCF7F3FD2A
:10379000FCF779FEA5F128016860081F044694ED46
:1037A000020AFCF763FF95EC020A04F10C009FED9E
:1037B000271A284980ED000A20EE011A9FED240AFD
:1037C000001D00EE801A80ED001AD4ED031A001DD2
:1037D00094EC020A21EEA02A01EE002A21EE201A22
:1037E00001EEC01A80ED002A001D80ED001AD4ED14
:1037F000071A94ED081A0C3021EEA02A01EE402A97
:1038000021EE800A01EE200A80ED002A001D80EDE5
:10381000000A0A6840F6A66050630A689063096867
:10382000C86370BD4400002000000000001071401B
:10383000000000000000E03F2C000020000000001D
:1038400000207140000000403333E33F3ACD133F86
:103850003ACD933F34010020FDF728FEFFF7B1FC7D
:10386000FFF7F8F9FFF77AFAFFF798F9FFF74EFA42
:103870001548FEF7E7FE1548FDF7A0FC00211248A9
:10388000FFF7DCF800211048FEF736FE04210E4851
:10389000FFF7D4F804210C48FEF72EFE08210A4851
:1038A000FFF7CCF808210848FEF726FE064840F648
:1038B000A66102685163026891630068C1637F2159
:1038C0000248FCF7E7FFFEE7340100206800002013
:1038D00000000000000000000102030406070809C0
:1038E000A0860100400D0300801A060000350C0080
:1038F00040420F0080841E0000093D0000127A0043
:103900000024F40000366E010048E801006CDC027F
:1039100000000000920E493CB10AC93C2BC3163D81
:103920002EFB483D752B7B3D04A9963D80B6AF3DEF
:1039300036BDC83D2FBCE13D73B2FA3D87CF093E8D
:103940008340163EB5AB223EA2102F3ECF6E3B3ECB
:10395000C2C5473E0115543E135C603E7F9A6C3EE3
:10396000CCCF783EC07D823E938E883E229A8E3E9A
:1039700032A0943E86A09A3EE59AA03E128FA63EC3
:10398000D47CAC3EEF63B23E2A44B83E491DBE3EF5
:1039900015EFC33E53B9C93ECA7BCF3E4136D53E33
:1039A00080E8DA3E4F92E03E7533E63EBBCBEB3E1D
:1039B000EA5AF13ECBE0F63E275DFC3EE4E7003FED
:1039C0003D9C033F824B063F9BF5083F6B9A0B3FA4
:1039D000DA390E3FCDD3103F2A68133FD9F6153F91
:1039E000C07F183FC6021B3FD17F1D3FCBF61F3F54
:1039F0009967223F25D2243F5636273F1594293F09
:103A00004AEB2B3FDE3B2E3FBB85303FC9C8323FE0
:103A1000F304353F233A373F4268393F3B8F3B3F02
:103A2000F9AE3D3F67C73F3F70D8413F01E2433F9A
:103A300003E4453F65DE473F12D1493FF8BB4B3FAA
:103A4000029F4D3F207A4F3F3D4D513F4918533F14
:103A500031DB543FE595563F5348583F6AF2593F92
:103A60001A945B3F532D5D3F05BE5E3F2146603F8C
:103A700097C5613F5A3C633F59AA643F880F663F30
:103A8000D86B673F3CBF683FA7096A3F0C4B6B3F51
:103A90005E836C3F93B26D3F9ED86E3F73F56F3F70
:103AA0000809713F5213723F4714733FDD0B743F97
:103AB0000BFA743FC6DE753F07BA763FC58B773F7A
:103AC000F853783F9812793F9DC7793F02737A3F48
:103AD000BE147B3FCDAC7B3F283B7C3FC9BF7C3FC6
:103AE000AC3A7D3FCCAB7D3F23137E3FB0707E3F31
:103AF0006DC47E3F580E7F3F6D4E7F3FAB847F3F4E
:103B00000FB17F3F97D37F3F43EC7F3F11FB7F3F58
:103B10000000803F11FB7F3F43EC7F3F97D37F3F07
:103B20000FB17F3FAB847F3F6D4E7F3F580E7F3F8D
:103B30006DC47E3FB0707E3F23137E3FCCAB7D3F94
:103B4000AC3A7D3FC9BF7C3F283B7C3FCDAC7B3F3F
:103B5000BE147B3F02737A3F9DC7793F9812793F2D
:103B6000F853783FC58B773F07BA763FC6DE753F7F
:103B70000BFA743FDD0B743F4714733F5213723FCF
:103B80000809713F73F56F3F9ED86E3F93B26D3F4A
:103B90005E836C3F0C4B6B3FA7096A3F3CBF683F9D
:103BA000D86B673F880F663F59AA643F5A3C633F12
:103BB00097C5613F2146603F05BE5E3F532D5D3F87
:103BC0001A945B3F6AF2593F5348583FE595563F78
:103BD00031DB543F4918533F3D4D513F207A4F3F11
:103BE000029F4D3FF8BB4B3F12D1493F65DE473F37
:103BF00003E4453F01E2433F70D8413F67C73F3F81
:103C0000F9AE3D3F3B8F3B3F4268393F233A373F58
:103C1000F304353FC9C8323FBB85303FDE3B2E3F02
:103C20004AEB2B3F1594293F5636273F25D2243F98
:103C30009967223FCBF61F3FD17F1D3FC6021B3F36
:103C4000C07F183FD9F6153F2A68133FCDD3103FE8
:103C5000DA390E3F6B9A0B3F9BF5083F824B063FCC
:103C60003D9C033FE4E7003F275DFC3ECBE0F63E92
:103C7000EA5AF13EBBCBEB3E7533E63E4F92E03E57
:103C800080E8DA3E4136D53ECA7BCF3E53B9C93EC5
:103C900015EFC33E491DBE3E2A44B83EEF63B23E17
:103CA000D47CAC3E128FA63EE59AA03E86A09A3EFA
:103CB00032A0943E229A8E3E938E883EC07D823EF4
:103CC000CCCF783E7F9A6C3E135C603E0115543E2B
:103CD000C2C5473ECF6E3B3EA2102F3EB5AB223E43
:103CE0008340163E87CF093E73B2FA3D2FBCE13DBB
:103CF00036BDC83D80B6AF3D04A9963D752B7B3DD2
:103D00002EFB483D2BC3163DB10AC93C920E493CDF
:103D100000000000920E49BCB10AC9BC2BC316BDFD
:103D20002EFB48BD752B7BBD04A996BD80B6AFBDEB
:103D300036BDC8BD2FBCE1BD73B2FABD87CF09BE89
:103D4000834016BEB5AB22BEA2102FBECF6E3BBEC7
:103D5000C2C547BE011554BE135C60BE7F9A6CBEDF
:103D6000CCCF78BEC07D82BE938E88BE229A8EBE96
:103D700032A094BE86A09ABEE59AA0BE128FA6BEBF
:103D8000D47CACBEEF63B2BE2A44B8BE491DBEBEF1
:103D900015EFC3BE53B9C9BECA7BCFBE4136D5BE2F
:103DA00080E8DABE4F92E0BE7533E6BEBBCBEBBE19
:103DB000EA5AF1BECBE0F6BE275DFCBEE4E700BFE9
:103DC0003D9C03BF824B06BF9BF508BF6B9A0BBFA0
:103DD000DA390EBFCDD310BF2A6813BFD9F615BF8D
:103DE000C07F18BFC6021BBFD17F1DBFCBF61FBF50
:103DF000996722BF25D224BF563627BF159429BF05
:103E00004AEB2BBFDE3B2EBFBB8530BFC9C832BFDC
:103E1000F30435BF233A37BF426839BF3B8F3BBFFE
:103E2000F9AE3DBF67C73FBF70D841BF01E243BF96
:103E300003E445BF65DE47BF12D149BFF8BB4BBFA6
:103E4000029F4DBF207A4FBF3D4D51BF491853BF10
:103E500031DB54BFE59556BF534858BF6AF259BF8E
:103E60001A945BBF532D5DBF05BE5EBF214660BF88
:103E700097C561BF5A3C63BF59AA64BF880F66BF2C
:103E8000D86B67BF3CBF68BFA7096ABF0C4B6BBF4D
:103E90005E836CBF93B26DBF9ED86EBF73F56FBF6C
:103EA000080971BF521372BF471473BFDD0B74BF93
:103EB0000BFA74BFC6DE75BF07BA76BFC58B77BF76
:103EC000F85378BF981279BF9DC779BF02737ABF44
:103ED000BE147BBFCDAC7BBF283B7CBFC9BF7CBFC2
:103EE000AC3A7DBFCCAB7DBF23137EBFB0707EBF2D
:103EF0006DC47EBF580E7FBF6D4E7FBFAB847FBF4A
:103F00000FB17FBF97D37FBF43EC7FBF11FB7FBF54
:103F1000000080BF11FB7FBF43EC7FBF97D37FBF03
:103F20000FB17FBFAB847FBF6D4E7FBF580E7FBF89
:103F30006DC47EBFB0707EBF23137EBFCCAB7DBF90
:103F4000AC3A7DBFC9BF7CBF283B7CBFCDAC7BBF3B
:103F5000BE147BBF02737ABF9DC779BF981279BF29
:103F6000F85378BFC58B77BF07BA76BFC6DE75BF7B
:103F70000BFA74BFDD0B74BF471473BF521372BFCB
:103F8000080971BF73F56FBF9ED86EBF93B26DBF46
:103F90005E836CBF0C4B6BBFA7096ABF3CBF68BF99
:103FA000D86B67BF880F66BF59AA64BF5A3C63BF0E
:103FB00097C561BF214660BF05BE5EBF532D5DBF83
:103FC0001A945BBF6AF259BF534858BFE59556BF74
:103FD00031DB54BF491853BF3D4D51BF207A4FBF0D
:103FE000029F4DBFF8BB4BBF12D149BF65DE47BF33
:103FF00003E445BF01E243BF70D841BF67C73FBF7D
:10400000F9AE3DBF3B8F3BBF426839BF233A37BF54
:10401000F30435BFC9C832BFBB8530BFDE3B2EBFFE
:104020004AEB2BBF159429BF563627BF25D224BF94
:10403000996722BFCBF61FBFD17F1DBFC6021BBF32
:10404000C07F18BFD9F615BF2A6813BFCDD310BFE4
:10405000DA390EBF6B9A0BBF9BF508BF824B06BFC8
:104060003D9C03BFE4E700BF275DFCBECBE0F6BE8E
:10407000EA5AF1BEBBCBEBBE7533E6BE4F92E0BE53
:1040800080E8DABE4136D5BECA7BCFBE53B9C9BEC1
:1040900015EFC3BE491DBEBE2A44B8BEEF63B2BE13
:1040A000D47CACBE128FA6BEE59AA0BE86A09ABEF6
:1040B00032A094BE229A8EBE938E88BEC07D82BEF0
:1040C000CCCF78BE7F9A6CBE135C60BE011554BE27
:1040D000C2C547BECF6E3BBEA2102FBEB5AB22BE3F
:1040E000834016BE87CF09BE73B2FABD2FBCE1BDB7
:1040F00036BDC8BD80B6AFBD04A996BD752B7BBDCE
:104100002EFB48BD2BC316BDB10AC9BC920E49BCDB
:10411000000000803441000800000020440000003E
:104120002837000878410008440000203C050000C2
:104130003837000800000000000000000000000008
:10414000000000000000000000000000000000006F
:10415000000000000000000000000000000000005F
:10416000000000000000000001000000100000003E
:084170000000000000093D0001
:04000005080001BD31
:00000001FF
